{
    "contractName": "Points",
    "abi": [
        {
            "inputs": [],
            "stateMutability": "nonpayable",
            "type": "constructor"
        },
        {
            "anonymous": false,
            "inputs": [
                {
                    "indexed": false,
                    "internalType": "address",
                    "name": "from",
                    "type": "address"
                },
                {
                    "indexed": false,
                    "internalType": "address",
                    "name": "to",
                    "type": "address"
                },
                {
                    "indexed": false,
                    "internalType": "uint256",
                    "name": "amount",
                    "type": "uint256"
                }
            ],
            "name": "Transfer",
            "type": "event"
        },
        {
            "inputs": [
                {
                    "internalType": "address",
                    "name": "",
                    "type": "address"
                }
            ],
            "name": "balances",
            "outputs": [
                {
                    "internalType": "uint256",
                    "name": "",
                    "type": "uint256"
                }
            ],
            "stateMutability": "view",
            "type": "function"
        },
        {
            "inputs": [
                {
                    "internalType": "address",
                    "name": "account",
                    "type": "address"
                },
                {
                    "internalType": "uint256",
                    "name": "amount",
                    "type": "uint256"
                }
            ],
            "name": "burn",
            "outputs": [],
            "stateMutability": "nonpayable",
            "type": "function"
        },
        {
            "inputs": [
                {
                    "internalType": "address",
                    "name": "account",
                    "type": "address"
                },
                {
                    "internalType": "uint256",
                    "name": "amount",
                    "type": "uint256"
                }
            ],
            "name": "mint",
            "outputs": [],
            "stateMutability": "nonpayable",
            "type": "function"
        },
        {
            "inputs": [],
            "name": "owner",
            "outputs": [
                {
                    "internalType": "address",
                    "name": "",
                    "type": "address"
                }
            ],
            "stateMutability": "view",
            "type": "function"
        },
        {
            "inputs": [],
            "name": "totalSupply",
            "outputs": [
                {
                    "internalType": "uint256",
                    "name": "",
                    "type": "uint256"
                }
            ],
            "stateMutability": "view",
            "type": "function"
        },
        {
            "inputs": [
                {
                    "internalType": "address",
                    "name": "receiver",
                    "type": "address"
                },
                {
                    "internalType": "uint256",
                    "name": "amount",
                    "type": "uint256"
                }
            ],
            "name": "transfer",
            "outputs": [],
            "stateMutability": "nonpayable",
            "type": "function"
        }
    ],
    "bytecode": "608060405234801561001057600080fd5b50600080546001600160a01b031916331790556106ba806100326000396000f3fe608060405234801561001057600080fd5b50600436106100625760003560e01c806318160ddd1461006757806327e235e31461008157806340c10f19146100a75780638da5cb5b146100d55780639dc29fac146100f9578063a9059cbb14610125575b600080fd5b61006f610151565b60408051918252519081900360200190f35b61006f6004803603602081101561009757600080fd5b50356001600160a01b0316610157565b6100d3600480360360408110156100bd57600080fd5b506001600160a01b038135169060200135610169565b005b6100dd6102bd565b604080516001600160a01b039092168252519081900360200190f35b6100d36004803603604081101561010f57600080fd5b506001600160a01b0381351690602001356102cc565b6100d36004803603604081101561013b57600080fd5b506001600160a01b038135169060200135610482565b60025490565b60016020526000908152604090205481565b6000546001600160a01b031633146101c1576040805162461bcd60e51b81526020600482015260166024820152752cb7ba9030b932903737ba103a34329037bbb732b91760511b604482015290519081900360640190fd5b7109f4f2726179a224501d762422c946590d91603c1b811061022a576040805162461bcd60e51b815260206004820152601a60248201527f4d6178696d756d2069737375616e636520737563636565646564000000000000604482015290519081900360640190fd5b600254610237908261054f565b6002556001600160a01b03821660009081526001602052604090205461025d908261054f565b6001600160a01b038316600081815260016020908152604080832094909455835191825281019190915280820183905290517fddf252ad1be2c89b69c2b068fc378daa952ba7f163c4a11628f55a4df523b3ef9181900360600190a15050565b6000546001600160a01b031681565b6000546001600160a01b03163314610324576040805162461bcd60e51b81526020600482015260166024820152752cb7ba9030b932903737ba103a34329037bbb732b91760511b604482015290519081900360640190fd5b7109f4f2726179a224501d762422c946590d91603c1b811061038d576040805162461bcd60e51b815260206004820152601a60248201527f4d6178696d756d2069737375616e636520737563636565646564000000000000604482015290519081900360640190fd5b6001600160a01b0382166000908152600160205260409020548111156103f2576040805162461bcd60e51b815260206004820152601560248201527424b739bab33334b1b4b2b73a103130b630b731b29760591b604482015290519081900360640190fd5b6002546103ff90826105b0565b6002556001600160a01b03821660009081526001602052604090205461042590826105b0565b6001600160a01b038316600081815260016020908152604080832094909455835192835282015280820183905290517fddf252ad1be2c89b69c2b068fc378daa952ba7f163c4a11628f55a4df523b3ef9181900360600190a15050565b336000908152600160205260409020548111156104de576040805162461bcd60e51b815260206004820152601560248201527424b739bab33334b1b4b2b73a103130b630b731b29760591b604482015290519081900360640190fd5b336000818152600160209081526040808320805486900390556001600160a01b03861680845292819020805486019055805193845290830191909152818101839052517fddf252ad1be2c89b69c2b068fc378daa952ba7f163c4a11628f55a4df523b3ef9181900360600190a15050565b6000828201838110156105a9576040805162461bcd60e51b815260206004820152601b60248201527f536166654d6174683a206164646974696f6e206f766572666c6f770000000000604482015290519081900360640190fd5b9392505050565b60006105a983836040518060400160405280601e81526020017f536166654d6174683a207375627472616374696f6e206f766572666c6f7700008152506000818484111561067c5760405162461bcd60e51b81526004018080602001828103825283818151815260200191508051906020019080838360005b83811015610641578181015183820152602001610629565b50505050905090810190601f16801561066e5780820380516001836020036101000a031916815260200191505b509250505060405180910390fd5b50505090039056fea26469706673582212209883b11835193b64763c53abb594905de150d6fa984dfd77a4f35d957e769fa464736f6c63430007000033",
    "sourcePath": "d:/Program/rectio/points-token/contract/BurghPoints.sol",
    "compiler": {
        "name": "solc",
        "version": "0.7.0+commit.9e61f92b"
    },
    "functionHashes": {
        "balances(address)": "27e235e3",
        "burn(address,uint256)": "9dc29fac",
        "mint(address,uint256)": "40c10f19",
        "owner()": "8da5cb5b",
        "totalSupply()": "18160ddd",
        "transfer(address,uint256)": "a9059cbb"
    },
    "gasEstimates": {
        "creation": {
            "codeDepositCost": "344400",
            "executionCost": "21215",
            "totalCost": "365615"
        },
        "external": {
            "balances(address)": "1124",
            "burn(address,uint256)": "infinite",
            "mint(address,uint256)": "infinite",
            "owner()": "1081",
            "totalSupply()": "976",
            "transfer(address,uint256)": "44604"
        }
    }
}